:100000000C9434000C9449000C9449000C94490061
:100010000C9449000C9449000C9449000C9449003C
:100020000C9449000C9449000C9449000C94640011
:100030000C9449000C9449000C9449000C9449001C
:100040000C9449000C9449000C9449000C9449000C
:100050000C9449000C9449000C9449000C944900FC
:100060000C9449000C94490011241FBECFEFD8E036
:10007000DEBFCDBF11E0A0E0B1E0E4EEF3E002C0EE
:1000800005900D92A230B107D9F70E9469010C9436
:10009000F0010C9400004A9B15C02D9A84EF91E06A
:1000A00020E931E0F9013197F1F70197D9F72D985F
:1000B00084EF91E020E931E0F9013197F1F7019700
:1000C000D9F708952D9A08951F920F920FB60F92A7
:1000D00011248F939F9385B190E2892785B99F91D1
:1000E0008F910F900FBE0F901F901895CF93DF93B5
:1000F000EC016130710511F489E015C068307105BB
:1001000011F48AE010C06034710511F48BE00BC06B
:1001100081E06030780711F48CE005C084E0603045
:10012000780719F48DE0809381009B01442737FD07
:100130004095542F60E074E284EF90E00E949001BB
:10014000CA01B9019E01442737FD4095542F0E94F2
:10015000900121503040309389002093880082E044
:1001600080936F00DF91CF910895EAE7F0E08081FE
:1001700087608083ACE7B0E08C9180648C93808151
:1001800080688083808180648083089590917C0062
:10019000907F90937C0090917C00982B90937C00B2
:1001A00080917A00806480937A0080917A0086FD45
:1001B000FCCF2091780030917900C90108959C010D
:1001C000442737FD4095542F64E0220F331F441F0E
:1001D000551F6A95D1F760E074E284EF90E00E94C9
:1001E0006E01C901DA010197A109B109292F3A2F3E
:1001F0004B2F55270196A11DB11D2093C50081509D
:100200008093C40088E18093C10086E08093C2009F
:1002100008950E94B50080E895E20E94DF00259ACB
:1002200008950E9409012D9882E090E060E071E05D
:100230000E94760078940895982F8091C00085FFE1
:10024000FCCF9093C60008958091C00087FFFCCF3B
:100250008091C6000895FC0107C08091C00085FF11
:10026000FCCF9093C600319690819923B1F7089501
:100270000F931F93DF93CF9300D000D00F92CDB791
:10028000DEB780E00E94C6008E010F5F1F4FB801ED
:100290004AE050E00E94AB01C8010E942B0180E0BF
:1002A00091E00E942B0180ED97E020E931E0F90117
:1002B0003197F1F70197D9F70F900F900F900F90AA
:1002C0000F90CF91DF911F910F9108950E943801F7
:1002D00008950E9411010E943801FDCFA1E21A2E5B
:1002E000AA1BBB1BFD010DC0AA1FBB1FEE1FFF1FDA
:1002F000A217B307E407F50720F0A21BB30BE40B2A
:10030000F50B661F771F881F991F1A9469F7609570
:100310007095809590959B01AC01BD01CF0108952A
:1003200097FB092E05260ED057FD04D0D7DF0AD043
:10033000001C38F450954095309521953F4F4F4F14
:100340005F4F0895F6F790958095709561957F4F72
:100350008F4F9F4F0895FB019F01E8944230C4F0F6
:100360004532B4F44A3029F497FB1EF490958195F8
:100370009F4F642F77270E94DC01805D8A330CF049
:10038000895D8193CB010097A1F716F45DE251934B
:100390001082C9010C94CC01DC01FC01672F719122
:1003A0007723E1F7329704C07C916D93708362915B
:1003B000AE17BF07C8F30895AA1BBB1B51E107C0C6
:1003C000AA1FBB1FA617B70710F0A61BB70B881FE5
:1003D000991F5A95A9F780959095BC01CD01089574
:0403E000F894FFCFBF
:0203E4000A000D
:00000001FF
